{
  "transactions": [
    {
      "hash": "0x6249dbf6b09f0797ebd3ae1bd1bf2e2fb20c6932afbdacd790b91e194118dfcc",
      "transactionType": "CREATE",
      "contractName": "TestUSDC",
      "contractAddress": "0xdf0f165cf6a97a932424ac619095c673ec7c7b4a",
      "function": null,
      "arguments": null,
      "transaction": {
        "from": "0x6741990a207678c444ad53b732b80046435706cb",
        "gas": "0x99fed",
        "value": "0x0",
        "input": "0x608060405234801561001057600080fd5b50600380546001600160a01b031916331790556106b7806100326000396000f3fe608060405234801561001057600080fd5b50600436106100a95760003560e01c806340c10f191161007157806340c10f191461015357806370a08231146101685780638da5cb5b1461018857806395d89b41146101b3578063a9059cbb146101d6578063dd62ed3e146101e957600080fd5b806306fdde03146100ae578063095ea7b3146100ec57806318160ddd1461010f57806323b872dd14610126578063313ce56714610139575b600080fd5b6100d66040518060400160405280600981526020016854657374205553444360b81b81525081565b6040516100e39190610520565b60405180910390f35b6100ff6100fa36600461058a565b610214565b60405190151581526020016100e3565b61011860025481565b6040519081526020016100e3565b6100ff6101343660046105b4565b610281565b610141600681565b60405160ff90911681526020016100e3565b61016661016136600461058a565b610399565b005b6101186101763660046105f0565b60006020819052908152604090205481565b60035461019b906001600160a01b031681565b6040516001600160a01b0390911681526020016100e3565b6100d6604051806040016040528060048152602001635553444360e01b81525081565b6100ff6101e436600461058a565b610490565b6101186101f7366004610612565b600160209081526000928352604080842090915290825290205481565b3360008181526001602090815260408083206001600160a01b038716808552925280832085905551919290917f8c5be1e5ebec7d5bd14f71427d1e84f3dd0314c0f7b2291e5b200ac8c7c3b9259061026f9086815260200190565b60405180910390a35060015b92915050565b6001600160a01b0383166000908152600160209081526040808320338452909152812054600019146102e6576001600160a01b0384166000908152600160209081526040808320338452909152812080548492906102e090849061065b565b90915550505b6001600160a01b0384166000908152602081905260408120805484929061030e90849061065b565b90915550506001600160a01b0383166000908152602081905260408120805484929061033b90849061066e565b92505081905550826001600160a01b0316846001600160a01b03167fddf252ad1be2c89b69c2b068fc378daa952ba7f163c4a11628f55a4df523b3ef8460405161038791815260200190565b60405180910390a35060019392505050565b6003546001600160a01b031633146103c457604051635fc483c560e01b815260040160405180910390fd5b80600260008282546103d6919061066e565b90915550506001600160a01b0382166000908152602081905260408120805483929061040390849061066e565b90915550506040518181526001600160a01b038316906000907fddf252ad1be2c89b69c2b068fc378daa952ba7f163c4a11628f55a4df523b3ef9060200160405180910390a3816001600160a01b03167f0f6798a560793a54c3bcfe86a93cde1e73087d944c0ea20544137d41213968858260405161048491815260200190565b60405180910390a25050565b336000908152602081905260408120805483919083906104b190849061065b565b90915550506001600160a01b038316600090815260208190526040812080548492906104de90849061066e565b90915550506040518281526001600160a01b0384169033907fddf252ad1be2c89b69c2b068fc378daa952ba7f163c4a11628f55a4df523b3ef9060200161026f565b600060208083528351808285015260005b8181101561054d57858101830151858201604001528201610531565b506000604082860101526040601f19601f8301168501019250505092915050565b80356001600160a01b038116811461058557600080fd5b919050565b6000806040838503121561059d57600080fd5b6105a68361056e565b946020939093013593505050565b6000806000606084860312156105c957600080fd5b6105d28461056e565b92506105e06020850161056e565b9150604084013590509250925092565b60006020828403121561060257600080fd5b61060b8261056e565b9392505050565b6000806040838503121561062557600080fd5b61062e8361056e565b915061063c6020840161056e565b90509250929050565b634e487b7160e01b600052601160045260246000fd5b8181038181111561027b5761027b610645565b8082018082111561027b5761027b61064556fea26469706673582212208f664e8dc8b214fd4b260551f302845f6dde0c2e129439ea04c41bdc3aaf209164736f6c63430008130033",
        "nonce": "0x2",
        "chainId": "0x66eee"
      },
      "additionalContracts": [],
      "isFixedGasLimit": false
    },
    {
      "hash": "0x3a247b1999e764cfa2365ea0edbe2b39b32c24a1ba0e4693ae704c9c88c78b6f",
      "transactionType": "CALL",
      "contractName": "TestUSDC",
      "contractAddress": "0xdf0f165cf6a97a932424ac619095c673ec7c7b4a",
      "function": "mint(address,uint256)",
      "arguments": [
        "0x6741990A207678C444ad53B732B80046435706CB",
        "1000000000000"
      ],
      "transaction": {
        "from": "0x6741990a207678c444ad53b732b80046435706cb",
        "to": "0xdf0f165cf6a97a932424ac619095c673ec7c7b4a",
        "gas": "0x8a14",
        "value": "0x0",
        "input": "0x40c10f190000000000000000000000006741990a207678c444ad53b732b80046435706cb000000000000000000000000000000000000000000000000000000e8d4a51000",
        "nonce": "0x3",
        "chainId": "0x66eee"
      },
      "additionalContracts": [],
      "isFixedGasLimit": false
    }
  ],
  "receipts": [
    {
      "status": "0x1",
      "cumulativeGasUsed": "0x74507",
      "logs": [],
      "logsBloom": "0x00000000000000000000000000000000000000000000000000000000000000000000000000000000000000000000000000000000000000000000000000000000000000000000000000000000000000000000000000000000000000000000000000000000000000000000000000000000000000000000000000000000000000000000000000000000000000000000000000000000000000000000000000000000000000000000000000000000000000000000000000000000000000000000000000000000000000000000000000000000000000000000000000000000000000000000000000000000000000000000000000000000000000000000000000000000",
      "type": "0x2",
      "transactionHash": "0x6249dbf6b09f0797ebd3ae1bd1bf2e2fb20c6932afbdacd790b91e194118dfcc",
      "transactionIndex": "0x1",
      "blockHash": "0x0135414d5b7c79f9151cee2e647053e887158c97a9c8f9ade2d2bae923d71910",
      "blockNumber": "0xe5306c1",
      "gasUsed": "0x74507",
      "effectiveGasPrice": "0x1312d00",
      "from": "0x6741990a207678c444ad53b732b80046435706cb",
      "to": null,
      "contractAddress": "0xdf0f165cf6a97a932424ac619095c673ec7c7b4a",
      "gasUsedForL1": "0x72b4",
      "l1BlockNumber": "0x9bb7e5",
      "timeboosted": false
    },
    {
      "status": "0x1",
      "cumulativeGasUsed": "0x3afdc",
      "logs": [
        {
          "address": "0xdf0f165cf6a97a932424ac619095c673ec7c7b4a",
          "topics": [
            "0xddf252ad1be2c89b69c2b068fc378daa952ba7f163c4a11628f55a4df523b3ef",
            "0x0000000000000000000000000000000000000000000000000000000000000000",
            "0x0000000000000000000000006741990a207678c444ad53b732b80046435706cb"
          ],
          "data": "0x000000000000000000000000000000000000000000000000000000e8d4a51000",
          "blockHash": "0xa5d4821bad0ba848801545d4db5dff06b97e927eb7ee79216507bb069fe37c0f",
          "blockNumber": "0xe5306c6",
          "blockTimestamp": "0x69862f6b",
          "transactionHash": "0x3a247b1999e764cfa2365ea0edbe2b39b32c24a1ba0e4693ae704c9c88c78b6f",
          "transactionIndex": "0x2",
          "logIndex": "0x4",
          "removed": false
        },
        {
          "address": "0xdf0f165cf6a97a932424ac619095c673ec7c7b4a",
          "topics": [
            "0x0f6798a560793a54c3bcfe86a93cde1e73087d944c0ea20544137d4121396885",
            "0x0000000000000000000000006741990a207678c444ad53b732b80046435706cb"
          ],
          "data": "0x000000000000000000000000000000000000000000000000000000e8d4a51000",
          "blockHash": "0xa5d4821bad0ba848801545d4db5dff06b97e927eb7ee79216507bb069fe37c0f",
          "blockNumber": "0xe5306c6",
          "blockTimestamp": "0x69862f6b",
          "transactionHash": "0x3a247b1999e764cfa2365ea0edbe2b39b32c24a1ba0e4693ae704c9c88c78b6f",
          "transactionIndex": "0x2",
          "logIndex": "0x5",
          "removed": false
        }
      ],
      "logsBloom": "0x00000000000000000000001000000000200000000000000000000000000000000000000000000000000000000000000000000000000000000000000000000000000000000020000000000008000000000000000000000000000000000000000000000000020000000000000000000800000000000000400000000010000000000000000000000000000000000000000000000000000000000000000000000000000080000000000000000000000000100000000000000000000000000000000000000002000000000000000000040000000000000000000000000000000020000000000400000000000000000000000000000000000000000020000000000000",
      "type": "0x2",
      "transactionHash": "0x3a247b1999e764cfa2365ea0edbe2b39b32c24a1ba0e4693ae704c9c88c78b6f",
      "transactionIndex": "0x2",
      "blockHash": "0xa5d4821bad0ba848801545d4db5dff06b97e927eb7ee79216507bb069fe37c0f",
      "blockNumber": "0xe5306c6",
      "gasUsed": "0x1293d",
      "effectiveGasPrice": "0x1312d00",
      "from": "0x6741990a207678c444ad53b732b80046435706cb",
      "to": "0xdf0f165cf6a97a932424ac619095c673ec7c7b4a",
      "contractAddress": null,
      "gasUsedForL1": "0x108e",
      "l1BlockNumber": "0x9bb7e5",
      "timeboosted": false
    }
  ],
  "libraries": [],
  "pending": [],
  "returns": {
    "token": {
      "internal_type": "contract TestUSDC",
      "value": "0xDf0F165CF6A97A932424Ac619095c673Ec7C7b4a"
    }
  },
  "timestamp": 1770401644202,
  "chain": 421614,
  "commit": null
}